{
  "_format": "hh-sol-artifact-1",
  "contractName": "Verify",
  "sourceName": "contracts/authentific.sol",
  "abi": [
    {
      "inputs": [
        {
          "internalType": "string",
          "name": "id",
          "type": "string"
        },
        {
          "internalType": "string",
          "name": "link",
          "type": "string"
        },
        {
          "internalType": "address payable",
          "name": "_to",
          "type": "address"
        }
      ],
      "name": "addPdfLink",
      "outputs": [],
      "stateMutability": "payable",
      "type": "function"
    },
    {
      "inputs": [
        {
          "internalType": "string[]",
          "name": "id",
          "type": "string[]"
        },
        {
          "internalType": "string[]",
          "name": "link",
          "type": "string[]"
        },
        {
          "internalType": "address payable",
          "name": "_to",
          "type": "address"
        }
      ],
      "name": "bulkAddPdfLink",
      "outputs": [],
      "stateMutability": "payable",
      "type": "function"
    },
    {
      "inputs": [
        {
          "internalType": "string",
          "name": "id",
          "type": "string"
        }
      ],
      "name": "getPdfLink",
      "outputs": [
        {
          "internalType": "string",
          "name": "",
          "type": "string"
        }
      ],
      "stateMutability": "view",
      "type": "function"
    },
    {
      "inputs": [
        {
          "internalType": "string",
          "name": "",
          "type": "string"
        }
      ],
      "name": "ipfs",
      "outputs": [
        {
          "internalType": "string",
          "name": "",
          "type": "string"
        }
      ],
      "stateMutability": "view",
      "type": "function"
    }
  ],
  "bytecode": "0x608060405234801561001057600080fd5b50610b95806100206000396000f3fe60806040526004361061003f5760003560e01c806363db2a4e146100445780636fbd8fdb14610060578063a30e6db51461007c578063dbc56d18146100b9575b600080fd5b61005e600480360381019061005991906106bb565b6100f6565b005b61007a6004803603810190610075919061077b565b6102c2565b005b34801561008857600080fd5b506100a3600480360381019061009e919061073a565b6103ae565b6040516100b091906108bb565b60405180910390f35b3480156100c557600080fd5b506100e060048036038101906100db919061073a565b610464565b6040516100ed91906108bb565b60405180910390f35b60005b82518110156102755760008085838151811061013e577f4e487b7100000000000000000000000000000000000000000000000000000000600052603260045260246000fd5b602002602001015160405161015391906108a4565b9081526020016040518091039020805461016c90610a2f565b905011156101af576040517f08c379a00000000000000000000000000000000000000000000000000000000081526004016101a6906108dd565b60405180910390fd5b8281815181106101e8577f4e487b7100000000000000000000000000000000000000000000000000000000600052603260045260246000fd5b6020026020010151600085838151811061022b577f4e487b7100000000000000000000000000000000000000000000000000000000600052603260045260246000fd5b602002602001015160405161024091906108a4565b90815260200160405180910390209080519060200190610261929190610514565b50808061026d90610a61565b9150506100f9565b508073ffffffffffffffffffffffffffffffffffffffff166108fc349081150290604051600060405180830381858888f193505050501580156102bc573d6000803e3d6000fd5b50505050565b600080846040516102d391906108a4565b908152602001604051809103902080546102ec90610a2f565b9050111561032f576040517f08c379a0000000000000000000000000000000000000000000000000000000008152600401610326906108dd565b60405180910390fd5b8160008460405161034091906108a4565b90815260200160405180910390209080519060200190610361929190610514565b508073ffffffffffffffffffffffffffffffffffffffff166108fc349081150290604051600060405180830381858888f193505050501580156103a8573d6000803e3d6000fd5b50505050565b60008180516020810182018051848252602083016020850120818352809550505050505060009150905080546103e390610a2f565b80601f016020809104026020016040519081016040528092919081815260200182805461040f90610a2f565b801561045c5780601f106104315761010080835404028352916020019161045c565b820191906000526020600020905b81548152906001019060200180831161043f57829003601f168201915b505050505081565b606060008260405161047691906108a4565b9081526020016040518091039020805461048f90610a2f565b80601f01602080910402602001604051908101604052809291908181526020018280546104bb90610a2f565b80156105085780601f106104dd57610100808354040283529160200191610508565b820191906000526020600020905b8154815290600101906020018083116104eb57829003601f168201915b50505050509050919050565b82805461052090610a2f565b90600052602060002090601f0160209004810192826105425760008555610589565b82601f1061055b57805160ff1916838001178555610589565b82800160010185558215610589579182015b8281111561058857825182559160200191906001019061056d565b5b509050610596919061059a565b5090565b5b808211156105b357600081600090555060010161059b565b5090565b60006105ca6105c58461092e565b6108fd565b9050808382526020820190508260005b8581101561060a57813585016105f08882610691565b8452602084019350602083019250506001810190506105da565b5050509392505050565b60006106276106228461095a565b6108fd565b90508281526020810184848401111561063f57600080fd5b61064a8482856109ed565b509392505050565b60008135905061066181610b48565b92915050565b600082601f83011261067857600080fd5b81356106888482602086016105b7565b91505092915050565b600082601f8301126106a257600080fd5b81356106b2848260208601610614565b91505092915050565b6000806000606084860312156106d057600080fd5b600084013567ffffffffffffffff8111156106ea57600080fd5b6106f686828701610667565b935050602084013567ffffffffffffffff81111561071357600080fd5b61071f86828701610667565b925050604061073086828701610652565b9150509250925092565b60006020828403121561074c57600080fd5b600082013567ffffffffffffffff81111561076657600080fd5b61077284828501610691565b91505092915050565b60008060006060848603121561079057600080fd5b600084013567ffffffffffffffff8111156107aa57600080fd5b6107b686828701610691565b935050602084013567ffffffffffffffff8111156107d357600080fd5b6107df86828701610691565b92505060406107f086828701610652565b9150509250925092565b60006108058261098a565b61080f8185610995565b935061081f8185602086016109fc565b61082881610b37565b840191505092915050565b600061083e8261098a565b61084881856109a6565b93506108588185602086016109fc565b80840191505092915050565b6000610871601583610995565b91507f4572726f722120416c72656164792065786973742e00000000000000000000006000830152602082019050919050565b60006108b08284610833565b915081905092915050565b600060208201905081810360008301526108d581846107fa565b905092915050565b600060208201905081810360008301526108f681610864565b9050919050565b6000604051905081810181811067ffffffffffffffff8211171561092457610923610b08565b5b8060405250919050565b600067ffffffffffffffff82111561094957610948610b08565b5b602082029050602081019050919050565b600067ffffffffffffffff82111561097557610974610b08565b5b601f19601f8301169050602081019050919050565b600081519050919050565b600082825260208201905092915050565b600081905092915050565b60006109bc826109c3565b9050919050565b600073ffffffffffffffffffffffffffffffffffffffff82169050919050565b6000819050919050565b82818337600083830152505050565b60005b83811015610a1a5780820151818401526020810190506109ff565b83811115610a29576000848401525b50505050565b60006002820490506001821680610a4757607f821691505b60208210811415610a5b57610a5a610ad9565b5b50919050565b6000610a6c826109e3565b91507fffffffffffffffffffffffffffffffffffffffffffffffffffffffffffffffff821415610a9f57610a9e610aaa565b5b600182019050919050565b7f4e487b7100000000000000000000000000000000000000000000000000000000600052601160045260246000fd5b7f4e487b7100000000000000000000000000000000000000000000000000000000600052602260045260246000fd5b7f4e487b7100000000000000000000000000000000000000000000000000000000600052604160045260246000fd5b6000601f19601f8301169050919050565b610b51816109b1565b8114610b5c57600080fd5b5056fea2646970667358221220c1e3dbb80ad95c36f1552558e396a701331a88e54c9b0f1899d635d8be4233fb64736f6c63430008000033",
  "linkReferences": {},
  "deployedLinkReferences": {}
}